:100000000C9491010C94B9010C94B9010C94B901B0
:100010000C94B9010C94B9010C94B9010C94B90178
:100020000C94B9010C94B9010C94B9010C94B90168
:100030000C94B9010C94B9010C94B9010C94B90158
:100040000C944A0E0C94B9010C94D5040C94AF0492
:100050000C94B9010C94B9010C94B9010C94B90138
:100060000C9407050C94B90100000000000000008A
:100070000000000000000000000000000000000080
:100080000000000000000000000000001000000060
:1000900000000000300000000000000078000000B8
:1000A00000000001FC00000000000003FE00000052
:1000B00000000007FE0000000000001FFF0000001D
:1000C0000000003FFF800000000000FFFF800000F4
:1000D000000001FFFF000000000003FFFE00000021
:1000E00000000FFFFC00000000001FFFF0000000F8
:1000F00000007FFFE00000000000FFFF8010000014
:100100000001FFFF003000000007FFFE00F80000C4
:10011000000FFFF801FC0000003FFFF007FE0000A9
:10012000007FFFC00FFE000000FFFF801FFF0000E8
:1001300003FFFF007FFF800007FFFE00FFFF80003E
:100140000FFFFF03FFFF000007FFFF07FFFC00009A
:1001500003FFFF8FFFF8000003FFFFFFFFF0040025
:1001600001FFFFFFFFC00E0000FFFFFFFF803F0009
:1001700000FFFFFFFF007F80007FFFFFFC00FF808C
:10018000003FFFFFF803FFC0001FFFFFE007FFE095
:10019000001FFFFFC00FFFE0000FFFFF803FFFF0D9
:1001A0000007FFFF007FFFC00003FFFF81FFFF800C
:1001B0000003FFFFC3FFFE000001FFFFE7FFFC009D
:1001C0000000FFFFFFFFF8000000FFFFFFFFE0005F
:1001D00000007FFFFFFFC00000003FFFFFFF0000A7
:1001E00000001FFFFFFE000000001FFFFFFC0000DB
:1001F00000000FFFFFF00000000007FFFFE000001D
:10020000000007FFFF800000000003FFFF00000068
:10021000000001FFFE000000000000FFF8000000E9
:10022000000000FFF00000000000007FE000000080
:100230000000003F800000000000003F00000000C0
:100240000000001C0000000000000008000000008A
:10025000000000000000000000000000000000009E
:1002600000000000000000005468616E6B20796F90
:100270007520666F722063686F6F73696E672045C3
:1002800076696C20436F727000450057697468642A
:10029000726177616C20416D6F756E743A004375C1
:1002A00073746F6D6572204E616D653A004942410D
:1002B0004E3A20004556494C20434F52502E204282
:1002C000414E4B0000000000240027002A000000DF
:1002D0000000250028002B0000000000230026005D
:1002E00029000404040404040404020202020202B9
:1002F00003030303030301020408102040800102EA
:100300000408102001020408102000000008000268
:100310000100000304070000000000000000441476
:10032000940E11241FBECFEFD8E0DEBFCDBF23E077
:10033000AAE8B1E001C01D92A53AB207E1F711E0C9
:10034000A0E0B1E0E8E8FFE202C005900D92AA3813
:10035000B107D9F711E0C0E9D1E004C02197FE014F
:100360000E94AD15CF38D107C9F70E94A80E0C9492
:10037000B7170C940000CF92DF92EF92FF920F9389
:100380001F93CF93DF936C017A018B01C0E0D0E023
:10039000CE15DF0581F0D8016D918D01D601ED916B
:1003A000FC910190F081E02DC6010995892B11F097
:1003B0002196EECF7E01C701DF91CF911F910F9162
:1003C000FF90EF90DF90CF900895FC01538D448D06
:1003D000252F30E0842F90E0821B930B541710F0F0
:1003E000CF96089501970895FC01918D828D9817FD
:1003F00061F0828DDF01A80FB11D5D968C91928D09
:100400009F5F9F73928F90E008958FEF9FEF089505
:10041000FC01918D828D981731F0828DE80FF11DCE
:10042000858D90E008958FEF9FEF0895FC01918DE9
:10043000228D892F90E0805C9F4F821B91098F73E2
:100440009927089583EE92E00E94160221E0892BFD
:1004500009F420E0822F0895FC01848DDF01A80FAC
:10046000B11DA35ABF4F2C91848D90E001968F73DC
:100470009927848FA689B7892C93A089B1898C91FB
:10048000837080648C93938D848D981306C002884A
:10049000F389E02D80818F7D80830895EF92FF9214
:1004A0000F931F93CF93DF93EC0181E0888F9B8D97
:1004B0008C8D981305C0E889F989808185FD26C057
:1004C000F62E0B8D10E00F5F1F4F0F731127E02EDC
:1004D0008C8DE8120CC00FB607FCFACFE889F989B9
:1004E000808185FFF5CFCE010E942C02F1CF8B8D4C
:1004F000FE01E80FF11DE35AFF4FF0829FB7F89419
:100500000B8FEA89FB89808180620AC09FB7F894CB
:10051000EE89FF896083E889F9898081837080642E
:1005200080839FBF81E090E0DF91CF911F910F9179
:10053000FF90EF900895CF93DF93EC01888D88238F
:10054000C9F0EA89FB89808185FD05C0A889B98940
:100550008C9186FD0FC00FB607FCF5CF808185FF1B
:10056000F2CFA889B9898C9185FFEDCFCE010E9489
:100570002C02E7CFDF91CF91089580E090E0892BA6
:1005800029F00E94220281110C940000089585ED4B
:100590008093BC008091BC0084FDFCCF10921702B8
:1005A00008954091CA01262F30E0240F311D2132D9
:1005B0003105DCF4209117022430C9F4FC0180E0FD
:1005C00090E0861758F43091CA012191DC01A655BC
:1005D000BE4FA30FB11D2C930196F3CF8091CA019A
:1005E000680F6093CA0180E0089581E0089582E079
:1005F0000895E0911C02F0911D02309729F01092AD
:1006000019021092180209940895CF93DF93AC0158
:10061000E0911E02F0911F023097F1F090911B02C1
:1006200080911A029817C0F090E0292F30E0261729
:10063000370754F4D901A657BE4FEA01C20FD31FA2
:1006400028812C939F5FF1CF10921B0260931A02B6
:10065000CB01DF91CF910994DF91CF910895089557
:10066000E0911B0280911A02E81730F4F0E0E6579F
:10067000FE4F808190E008958FEF9FEF0895909155
:100680001B0280911A02981750F4E92FF0E0E65708
:10069000FE4F208130E09F5F90931B0202C02FEF3E
:1006A0003FEFC901089580911A0290E020911B024A
:1006B000821B91090895CF93DF93CB01EA01642F48
:1006C0000E94D102CE01DF91CF910895CF93DF93A5
:1006D0001F92CDB7DEB7698361E0CE0101960E941B
:1006E000D10281E090E00F90DF91CF910895BC019D
:1006F0006E5F7F4FDC01ED91FC910190F081E02D68
:1007000040E0099591E0811190E0892F08950895C6
:1007100080E090E008950E949A170F931F93CF9363
:10072000DF93EC0188819981009729F02A813B8130
:100730002617370788F48B016F5F7F4F0E94D4160E
:10074000009761F0998388831B830A832C813D8104
:10075000232B11F4FC01108281E001C080E0DF91C5
:10076000CF911F910F910895EF92FF920F931F93D6
:10077000CF93DF9300D0CDB7DEB78C0169831A82A7
:10078000FC01E480F580FFEFEF1AFF0AB7010E9439
:100790008D03882381F0F801208131818481958146
:1007A000BE016F5F7F4F820F931F0E94B017F80149
:1007B000F582E48281E00F900F90DF91CF911F913D
:1007C0000F91FF90EF9008950F931F93CF93DF93B6
:1007D0008AE392E00E943F03182FC0E0D0E001E0DE
:1007E00080911A0290E020911B02821B9109181639
:1007F00019060CF046C08AE392E00E943F03682F7E
:100800001A3241F01B3219F0133251F730C0009305
:100810003202E6CF8C3241F42196C230D105A1F0EC
:10082000C330D10539F41CC0C230D10569F0C330E2
:10083000D10589F0C130D10599F68EE592E00E948C
:10084000B403C1E0D0E0CCCF88E592E00E94B403CD
:10085000C2E0D0E0C5CF8E3219F400933302C0CF8E
:1008600082E592E00E94B403C3E0D0E0B9CF8E32BB
:1008700019F400933102B4CF86E492E00E94B403ED
:10088000AFCFDF91CF911F910F910895862F642FE5
:100890000C94360DCF93DF9361E08DE00E94360D0E
:1008A000C0E2D2E069918AE392E00E94660382E0AE
:1008B000C133D807B9F7DF91CF910895862F0C94F3
:1008C0000D0D862F642F0C94970DEF92FF920F93CE
:1008D0001F93CF93DF93EC017B018A01BA010E9441
:1008E0008D032881398181110DC02115310519F041
:1008F000C9010E944B16198218821D821C821B821C
:100900001A8206C01D830C83B701C9010E94B0176B
:10091000CE01DF91CF911F910F91FF90EF9008953D
:10092000FC01808191810C944B16FB01DC01119636
:100930001C921E9213961C921E92129715961C9250
:100940001E9214978617970749F06081718161158F
:10095000710521F0448155810C94650408951F921E
:100960000F920FB60F9211242F933F934F935F93E3
:100970006F937F938F939F93AF93BF93EF93FF9367
:1009800083EE92E00E942C02FF91EF91BF91AF9114
:100990009F918F917F916F915F914F913F912F9197
:1009A0000F900FBE0F901F9018951F920F920FB6C9
:1009B0000F9211242F938F939F93EF93FF93E091C6
:1009C000F302F091F4028081E091F902F091FA02D1
:1009D00082FD12C090818091FC028F5F8F73209105
:1009E000FD02821751F0E091FC02F0E0ED51FD4F65
:1009F000958F8093FC0201C08081FF91EF919F91C0
:100A00008F912F910F900FBE0F901F9018951F92EE
:100A10000F920FB60F9211242F933F934F935F9332
:100A20006F937F938F939F93AF93BF93EF93FF93B6
:100A30008091B900887F803609F49CC068F58832BF
:100A400009F45BC090F4803109F454C038F4882371
:100A500009F4F6C0883009F44DC0F6C0883109F4B5
:100A60004CC0803209F45DC0EFC0803409F468C026
:100A700048F4803309F455C0883309F0E5C0809309
:100A8000ED01D8C0803509F44FC0883509F45DC048
:100A9000883409F0D9C0D6C0883909F4C7C0A8F491
:100AA000883709F467C038F4883609F463C08037A2
:100AB00009F460C0C9C0883809F4B8C0803909F4A5
:100AC0005FC0803809F0C0C05BC0803B09F486C0BD
:100AD00038F4803A09F466C0883A09F47FC0B4C09B
:100AE000803C09F4A7C0883C09F4A4C0883B09F401
:100AF0008AC0AAC08091100210C090910F0280910C
:100B00000E02981770F5E0910F0281E08E0F80932E
:100B10000F02F0E0E251FE4F80818093BB0085EC34
:100B200086C08093ED018EC0E0910F0281E08E0FB0
:100B300080930F028091BB00F0E0E251FE4F808372
:100B400090910F0280910E026EC0E0910F0281E041
:100B50008E0F80930F028091BB00F0E0E251FE4FB8
:100B600080838091160281116DC081E0809315020F
:100B700084EA61C083E0809317021092EC01CFCF2A
:100B80008091EC01803208F051C0E091EC0181E0ED
:100B90008E0F8093EC018091BB00F0E0E453FE4F98
:100BA0008083BDCF85EC8093BC00109217028091AA
:100BB000EC01803230F4E091EC01F0E0E453FE4FC0
:100BC00010826091EC0170E0E0911102F09112024C
:100BD0008CEC91E009951092EC0136C084E0809392
:100BE00017021092CB011092CA01E0911302F0910A
:100BF000140209958091CA01811105C081E080939A
:100C0000CA011092AA01E091CB0181E08E0F80937E
:100C1000CB01F0E0E655FE4F80818093BB009091C0
:100C2000CB018091CA01981708F479CF85E88093A9
:100C3000BC000AC085EC8093BC001092170204C06F
:100C40001092ED010E94C702FF91EF91BF91AF9109
:100C50009F918F917F916F915F914F913F912F91D4
:100C60000F900FBE0F901F90189508958EBD000035
:100C70000DB407FEFDCF8EB508958CBD9DBD0895C2
:100C80001F93CF93DF93EC01162F83E590E00E9432
:100C90003D0660E08E850E94360D812F80680E949F
:100CA000360680E00E943606182F61E08E850E948D
:100CB000360D812FDF91CF911F9108950F931F93D0
:100CC000CF93DF93EC01062F142F83E590E00E9471
:100CD0003D0660E08E850E94360D802F0E9436060C
:100CE000812F0E94360661E08E85DF91CF911F91A2
:100CF0000F910C94360DCF92DF92EF92FF920F93EB
:100D00001F93CF93DF93EC016B01142F790140E027
:100D100062E00E945E0644E06AE0CE010E945E0648
:100D200040E864E1CE010E945E06A601612FCE017B
:100D30000E94650D43E062E0CE010E945E0608E875
:100D400013E16AE0CE010E94400682FF13C040E03A
:100D500062E0CE010E945E0664E4CE010E9440067D
:100D6000F701808362E4CE010E944006F70181838F
:100D700080E004C00150110921F783E0DF91CF9199
:100D80001F910F91FF90EF90DF90CF9008953F92C9
:100D90004F925F926F927F928F929F92AF92BF928B
:100DA000CF92DF92EF92FF920F931F93CF93DF9337
:100DB00000D0CDB7DEB73C01162F942E2901A11427
:100DC000B10419F0F501408101C040E0342EF0E19A
:100DD0008F9E300C112440E062E0C3010E945E0649
:100DE0004FE768E0C3010E945E0640E864E1C3018A
:100DF0000E945E06A201602FC3010E94650D432D73
:100E00006AE1C3010E945E06412F62E0C3010E94B5
:100E10005E061C3051F46AE1C3010E944006482F6F
:100E200040686AE1C3010E945E0600ED17E068E0D9
:100E3000C3010E944006982F992139F480FD03C018
:100E400001501109A1F783E09EC06CE0C3010E942C
:100E50004006982E837109F093C0E114F10409F45F
:100E600057C0C114D10409F453C064E1C3010E9406
:100E70004006582EF6018081851508F47BC050820B
:100E80005520D9F183E590E00E943D0660E0F30132
:100E900086850E94360D5A9482E90E943606882083
:100EA000A1F00FEF10E001C0000F8A94EAF782E989
:100EB0000E943606202F2095F701908192238023EF
:100EC000892B80838824839401C0812C082D10E015
:100ED0000E0D1F1D851438F482E90E943606F801B4
:100EE00080838394F3CF80E00E943606F8018083EC
:100EF00061E0F30186850E94360D68E1C3010E941E
:100F000040068770A114B10421F0F501808301C06F
:100F100080E093FC31C0E114F10481F1C114D104EB
:100F200069F19E89992351F1F6014081413021F404
:100F3000843041F58FEF27C0423020F1811122C06B
:100F400042509E012F5F3F4FB701C3010E947B06B5
:100F5000811119C0F6018081E80EF11CF70132976A
:100F60009081898198130EC0319690818A8198135F
:100F700009C004C084E007C082E005C080E003C06F
:100F800081E001C087E00F900F90DF91CF911F911A
:100F90000F91FF90EF90DF90CF90BF90AF909F9018
:100FA0008F907F906F905F904F903F9008950F9338
:100FB0001F93CF93DF938C01D62FC42F0E9440063E
:100FC000C0954C2F48236D2FC801DF91CF911F9101
:100FD0000F910C945E066F927F928F92AF92BF92A8
:100FE000CF92DF92EF92FF920F93CF93DF9300D0D7
:100FF00000D01F92CDB7DEB73C0182E08D8340E088
:1010000064E2C3010E945E0640E066E2C3010E9402
:101010005E0646E268E4C3010E945E0686E28B83B8
:101020008D81823020F140E86CE1C3010E94D70736
:1010300087E08C831F92812CCE0104965C0101967F
:101040006C0104977C0101E09E012D5F3F4F40E35E
:101050006CE0C3010E94C7060F9081110BC08D8107
:10106000823039F481E09C81911104C008C084E091
:1010700001C081E091E0823019F090E001C091E080
:10108000892F0F900F900F900F900F90DF91CF91BD
:101090000F91FF90EF90DF90CF90BF90AF908F9027
:1010A0007F906F9008952F923F924F925F926F9230
:1010B0007F928F929F92AF92BF92CF92DF92EF92E8
:1010C000FF920F931F93CF93DF93CDB7DEB72D978A
:1010D0000FB6F894DEBF0FBECDBF413508F004C196
:1010E0004D872B013C0140E86CE10E94D70731E0BD
:1010F0003C878C85823091F08330F1F0813009F0AB
:10110000F5C083E989839D859923D9F081E0F201B7
:101110009081953008F480E0912C18C0F5E9F983AE
:101120003D85332381F081E0F2019081983008F40D
:1011300080E043E0942E0AC087E9898336E0932E4D
:1011400004C0912C02C023E0922E80E01D85F8E0BF
:101150009F9E1019112417FD10E0882321F098E8B4
:101160009B8333E001C032E021E0912F977009F4B6
:1011700020E0912F959595959595290F29F4882331
:1011800009F491C0185F8FC0811102C094E001C0C2
:1011900093E0291708F4922FE92DF0E03196E40D41
:1011A000F51D232F4191A1E0B0E0AC0FBD1FA20FB0
:1011B000B11D4C932F5F422F431B491798F3DFCF8C
:1011C0008111DFC010320CF093C010E230E73A8397
:1011D0009B818C8189279D8189279E8189278F8387
:1011E0009E01285F3F4F47E0BE016F5F7F4FC30105
:1011F0000E947B068111A3C01A8683E08B87FE01C3
:1012000037961F0109E08A84482D4295407F480D9A
:101210006AE1C3010E945E061F92CE010A965C013C
:10122000FE013B966F0171019E012F5F3F4F40E32E
:101230006CE0C3010E94C706082F0F90823009F0AE
:10124000BFCF6CE1C3010E94400685FD9AC08F713B
:1012500009F480E2282F30E0412F110F550B42177F
:1012600053070CF043C0182F822F859585958595DF
:1012700091E0980F422F477081E009F480E0890FD8
:10128000E1E0F0E0EC0FFD1FE80FF11D2150310906
:101290002770332781E090E001C0880F2A95EAF794
:1012A0009081892B808310320CF090CF912F977012
:1012B0009A87812F8595859585958E5F292FF0E1F9
:1012C0008F9F200D11242A8301E0911101C000E0BD
:1012D000080F22242394312C2C0E3D1E280E311C85
:1012E00039E0381B3B878FCF06E04BC005E049C093
:1012F0008B81883809F442C082E094E0E92DF0E067
:101300003196E40DF51D980FA1E0B0E0AC0FBD1FC4
:10131000A80FB11D2C9121938F5F8913F5CF8B8579
:10132000833041F58A85811125C09E012D5F3F4F95
:1013300041E0B101C3010E947B06882311F0082F10
:1013400020C09B81F1018181981316C09C8182810C
:10135000981312C0808182FF04C0FC85FF5FFC8768
:10136000C8CEF20183878C85880F9C84980E939455
:10137000908207C001E005C007E003C083E093E06E
:10138000BDCF802F2D960FB6F894DEBF0FBECDBF18
:10139000DF91CF911F910F91FF90EF90DF90CF9051
:1013A000BF90AF909F908F907F906F905F904F9085
:1013B0003F902F9008950F931F93CF93DF93EC01ED
:1013C0008F85882331F08E850E940D0D0197D9F30A
:1013D0000EC00E94250E088919892A893B89DC01E3
:1013E000CB01801B910BA20BB30BB7FDF2CFDF91AA
:1013F000CF911F910F910895CF92DF92EF92FF92BC
:10140000CF93DF93FC01278521110FC06A017B0177
:10141000EC010E94250EDC01CB018C0D9D1DAE1D43
:10142000BF1D888B998BAA8BBB8BDF91CF91FF90CF
:10143000EF90DF90CF9008958F929F92AF92BF92DE
:10144000CF92DF92EF92FF921F93CF93DF93EC0145
:10145000162F633109F44BC00E94DB098C819D81FA
:10146000DC01ED91FC910190F081E02D612F099557
:101470001A3021F08885998589132FC09F818A852C
:10148000EB85C88CD98CEA8CFB8C9A3049F4AE2F52
:10149000B0E0A80FB11DA70196010E94A51514C0C8
:1014A0002C893D894E895F89A82FB0E00E94541590
:1014B0004B015C01AE2FB0E0A70196010E945415CC
:1014C000680D791D8A1D9B1DAB01BC01435C5D4FFE
:1014D0006F4F7F4F18861AE006C08F5F88874DE3F5
:1014E00052E060E070E0CE010E94FC091F8381E0C1
:1014F00090E0DF91CF911F91FF90EF90DF90CF9020
:10150000BF90AF909F908F9008951F93CF93DF93DC
:10151000EC01162F0E94DB098C819D81DC01ED918D
:10152000FC910190F081E02D612F09954DE352E08F
:1015300060E070E0CE01DF91CF911F910C94FC0927
:101540006CE00C94850A96E0899FD0011124AC5977
:10155000BD4F90967C936E935F9791E091969C938C
:1015600091979091D002E091D102F091D20299230B
:1015700039F0309751F0811108C08091800204C089
:10158000309719F05C968C9109940895833081F01E
:1015900028F4813099F08230A1F008958730A9F0C5
:1015A0008830B9F08430D1F4809180008F7D03C001
:1015B000809180008F7780938000089584B58F7725
:1015C00002C084B58F7D84BD08958091B0008F776F
:1015D00003C08091B0008F7D8093B000089542E0F9
:1015E00050E066E871E080E893E00C94BB01FC01F8
:1015F00011821082138212821582148240E050E020
:1016000068E871E00C946504FF920F931F93CF93E9
:10161000DF93F82E062F142F80E893E00E94DB0959
:10162000C0E8D3E08C819D81DC01ED91FC910190BB
:10163000F081E02D6F2D09958C819D81DC01ED916C
:10164000FC910190F081E02D602F09958C819D81A6
:10165000DC01ED91FC910190F081E02D612F099565
:1016600047EB56E060E070E0CE01DF91CF911F9133
:101670000F91FF900C94FC091F93CF93DF93182FC9
:1016800080E893E00E94DB09C0E8D3E08C819D8173
:10169000DC01ED91FC910190F081E02D6BE1099569
:1016A0008C819D81DC01ED91FC910190F081E02D18
:1016B000612F09954AE754E060E070E0CE01DF91C8
:1016C000CF911F910C94FC09EF92FF920F931F93FF
:1016D000CF93DF93E82EF62E042F122F80E893E0AD
:1016E0000E94DB09C0E8D3E08C819D81DC01ED9193
:1016F000FC910190F081E02D6E2D09958C819D81EA
:10170000DC01ED91FC910190F081E02D6F2D0995A8
:101710008C819D81DC01ED91FC910190F081E02DA7
:10172000602F09958C819D81DC01ED91FC910190E8
:10173000F081E02D612F099544EF58E060E070E002
:10174000CE01DF91CF911F910F91FF90EF900C94FC
:10175000FC09CF93DF93482F64E68BE10E94040BD2
:10176000C0E8D3E0AA85288D398D4A8D5B8DB0E025
:101770000E945415AB01BC01CE010E94FC098AE015
:101780008F831886DF91CF9108950F931F93CF9386
:10179000DF938C01C0E0D0E0F801EC0FFD1F6491F5
:1017A000662341F080E893E00E941C0A892B11F027
:1017B0002196F2CFCE01DF91CF911F910F91089525
:1017C000CF93DF930E94C50BEC010E94EF0A8C0FB0
:1017D0009D1FDF91CF910895082E000C990B0E9458
:1017E0009F178C34910599F08D34910541F088E173
:1017F00080938A0380E28093890340E00FC080E3F6
:1018000080938A0380E28093890341E007C080E3EC
:1018100080938A0380E18093890341E161E28DE155
:101820000E94040B8AE0809387030895082E000C21
:10183000990B0E949F178334910529F082359105F9
:1018400021F442E003C041E001C040E061E68BE1E9
:101850000C94040B809590918603482F4923409364
:10186000860361E28BE10E94040B8091860384FD74
:1018700002C098E101C090E390938A0385FD02C005
:1018800080E201C080E1809389030895CF93DF93C4
:10189000009779F0FC0101900020E9F73197AF0142
:1018A000481B590BBC0180E893E00E94BB01EC018E
:1018B00002C0C0E0D0E00E94EF0A8C0F9D1FDF91B4
:1018C000CF9108954091860348604093860361E27A
:1018D0008BE10E94040B8091860384FD02C098E195
:1018E00001C090E390938A0385FD02C080E201C0AD
:1018F00080E1809389030895CF93DF93FC014481B5
:1019000055816081718180E893E00E94BB01EC0108
:101910000E94EF0A8C0F9D1FDF91CF910895CF9306
:10192000DF93EC0140E050E068E871E00E9465045C
:10193000CE01DF91CF910895CF92DF92EF92FF9287
:101940000F931F9396E0899FF0011124EC59FD4FEE
:1019500011A2278D30A12130310539F158F0223004
:10196000310509F447C02330310509F04FC060E06C
:1019700070E044C0662309F449C061E070E00E9451
:10198000A30A2FB7F8948091360290913702A09164
:101990003802B09139022FBF8093BC029093BD02F0
:1019A000A093BE02B093BF0231C09FB7F894C0901D
:1019B0003602D0903702E0903802F09039029FBF93
:1019C0000091BC021091BD022091BE023091BF0275
:1019D000C01AD10AE20AF30A0091CE021091CF0296
:1019E00020E030E00C151D052E053F0518F462E0DF
:1019F00070E004C061110AC063E070E01F910F91B4
:101A0000FF90EF90DF90CF900C94A30A1F910F915D
:101A1000FF90EF90DF90CF900895CF93DF93282F22
:101A200030E0F901E65FFC4F8491F901EA50FD4F87
:101A3000D491F901EE51FD4FC491CC2391F0811165
:101A40000E94C60AEC2FF0E0EE0FFF1FE852FD4F98
:101A5000A591B491EC91ED2381E090E021F480E038
:101A600002C080E090E0DF91CF9108951F93CF9363
:101A7000DF93282F30E0F901E65FFC4F8491F901F4
:101A8000EA50FD4FD491F901EE51FD4FC491CC23A2
:101A9000C1F0162F81110E94C60AEC2FF0E0EE0F64
:101AA000FF1FE253FD4FA591B4919FB7F894111118
:101AB00004C08C91D095D82302C0EC91DE2BDC932E
:101AC0009FBFDF91CF911F910895DF92EF92FF9218
:101AD0000F931F93CF93DF938C01F62ED42EE52E18
:101AE00083E590E00E943D0660E0F80186850E9453
:101AF000360D82E10E943606CD2DDE2DCE018F0DF2
:101B0000911D7C01EC16FD0621F089910E9436069C
:101B1000F9CF61E0F80186850E94360DDF91CF9103
:101B20001F910F91FF90EF90DF900C943506CF93AB
:101B3000DF9390E0FC01EA50FD4F2491FC01EE514F
:101B4000FD4F8491882361F190E0880F991FFC017B
:101B5000EC53FD4FC591D491FC01E253FD4FA5918B
:101B6000B491611109C09FB7F894888120958223B0
:101B70008883EC912E230BC0623061F49FB7F894F8
:101B80008881322F309583238883EC912E2B2C93E0
:101B90009FBF06C08FB7F894E8812E2B28838FBF94
:101BA000DF91CF9108958F929F92AF92BF92CF9283
:101BB000DF92EF92FF926B017C010E94250E4B0198
:101BC0005C01C114D104E104F104F1F00E94250E7E
:101BD000DC01CB0188199909AA09BB09883E934009
:101BE000A105B10570F321E0C21AD108E108F1089E
:101BF00088EE880E83E0981EA11CB11CC114D1048C
:101C0000E104F10419F7DDCFFF90EF90DF90CF9062
:101C1000BF90AF909F908F90089540E050E0BA0140
:101C200080E893E00E94FC096FEF80E893E00E9457
:101C3000850A62E370E080E090E00E94D30D20E02E
:101C400040E068E38BE10C94640B3FB7F89480911B
:101C50009D0390919E03A0919F03B091A00326B590
:101C6000A89B05C02F3F19F00196A11DB11D3FBFD4
:101C7000BA2FA92F982F8827820F911DA11DB11D62
:101C8000BC01CD0142E0660F771F881F991F4A955E
:101C9000D1F708951F920F920FB60F9211242F9330
:101CA0003F938F939F93AF93BF9380913602909110
:101CB0003702A0913802B091390230919C0323E0A1
:101CC000230F2D3720F40196A11DB11D05C026E874
:101CD000230F0296A11DB11D20939C038093360211
:101CE00090933702A0933802B093390280919D03FC
:101CF00090919E03A0919F03B091A0030196A11D16
:101D0000B11D80939D0390939E03A0939F03B09376
:101D1000A003BF91AF919F918F913F912F910F9011
:101D20000FBE0F901F90189586E492E00E949004D9
:101D30008CE492E00E94900482E592E00E9490047C
:101D400088E592E00E9490048EE592E00C94900465
:101D5000CF93DF93CDB7DEB7A3970FB6F894DEBF6E
:101D60000FBECDBF789484B5826084BD84B5816098
:101D700084BD85B5826085BD85B5816085BD809156
:101D80006E00816080936E001092810080918100CE
:101D900082608093810080918100816080938100C6
:101DA000809180008160809380008091B100846088
:101DB0008093B1008091B00081608093B0008091E9
:101DC0007A00846080937A0080917A0082608093A8
:101DD0007A0080917A00816080937A0080917A0005
:101DE000806880937A001092C10040E251EA67E077
:101DF00070E080E893E00E94FC090E940D0E80E4F0
:101E00000E943C0B8AE0809387031092880380E253
:101E10008093890388E180938A0386E080938B0313
:101E200082E380938C0384E40E943C0B20E14CE02D
:101E300068E084E00E94640B20E04CE168E184E10A
:101E40000E94640B87E30E943C0B48E268E78BE04A
:101E50000E94040B4AE463E282E10E94040B809139
:101E60008E038F3F59F062E00E94970D40E261E6D9
:101E70008DE10E94040B81E080938F0380E395E75E
:101E8000A0E0B0E08093940390939503A093960311
:101E9000B093970384E398E0A0E0B0E080939803C8
:101EA00090939903A0939A03B0939B038FEF809331
:101EB0008D03E091F302F091F40282E08083E091DF
:101EC000EF02F091F0021082E091F102F091F20243
:101ED0008FEC80831092FB02E091F702F091F80200
:101EE00086E08083E091F502F091F60280818061C6
:101EF0008083E091F502F091F60280818860808312
:101F0000E091F502F091F602808180688083E09193
:101F1000F502F091F60280818F7D80831FB7F894DF
:101F200080913402811127C0ECEEF2E08491E0E070
:101F3000F3E09491E82FF0E0EE0FFF1FEC53FD4F1C
:101F4000A591B491EC91E92321F461E08AE00E942B
:101F5000360D61E08AE00E94970D8CB580618CBDE2
:101F60008CB580648CBD61E08DE00E94970D61E0CE
:101F70008BE00E94970D809134028F5F8093340232
:101F80001FBF61E08091E1020E94970D61E08091A6
:101F9000E1020E94360D8091E2028F3F09F446C4AF
:101FA00060E00E94970D8091E2020E940D0D892B46
:101FB00009F03CC461E08091E2020E94970D60E06C
:101FC0008091E2020E94360D83E090E00197F1F7E4
:101FD00061E08091E2020E94360D62E370E080E0F1
:101FE00090E00E94D30D0FC0115069F062E370E0E1
:101FF00080E090E00E94D30D62E083ED92E00E94C9
:10200000400684FDF1CF40E064E283ED92E00E945F
:102010005E0640E066E283ED92E00E945E0646E2E4
:1020200068E483ED92E00E945E0640E864E583ED9B
:1020300092E00E945E0649EA66E583ED92E00E9426
:102040005E0643E068E583ED92E00E945E0648EE9E
:102050006AE583ED92E00E945E0640E46AE283ED69
:1020600092E00E945E064DE362E283ED92E00E9400
:102070005E0668E283ED92E00E944006982F93701E
:10208000933039F0482F436068E283ED92E00E947C
:102090005E0610921B0210921A0210921902109200
:1020A00018021092170281E0809316021092150216
:1020B00061E082E10E94360D61E083E10E94360D0D
:1020C0008091B9008E7F8093B9008091B9008D7F97
:1020D0008093B90088E48093B80085E48093BC00C5
:1020E00089EF92E0909314028093130285E093E0CD
:1020F000909312028093110280E18093BA008AE4E7
:1021000094E090931D0280931C0284EE93E09093E0
:102110001F0280931E02CE010D9699A388A3DE01B3
:102120005196BBA3AAA380913302882309F43BC133
:1021300062E572E0CE0101960E94950468E572E0C6
:10214000CE0143960E9495046EE572E0CE01499659
:102150000E9495040E940D0E41E06DE38BE10E9408
:10216000040B8CE40E94160C40E062E48DE10E94B6
:10217000040B80E10E942A0C86E080938B034EE1E1
:1021800063E38BE10E94040B88E00E942A0C40E08C
:102190006DE28BE10E94040B82E380938C0342E3A7
:1021A00068E68DE10E94040B83E70E94EC0B40E09F
:1021B00062E58BE10E94040B40E064E78BE10E9442
:1021C000040B83E40E94160C8CE40E94EC0B84EB5D
:1021D00092E00E94E00B83E50E94EC0B8EE691E01A
:1021E0000E94460C81E00E94A90B8CE40E94160C10
:1021F0008DEA92E00E94C50B0E94620CCE014996C6
:102200000E947C0C88E00E942A0C81E00E94A90BAD
:102210008CE40E94160C8EE992E00E94E00B82E5AD
:102220000E94160C0E94620CCE0143960E947C0C08
:1022300088E00E942A0C8CE40E94160C8BE892E045
:102240000E94E00B82E50E94160C0E94620C89E855
:1022500092E00E94C50B4D815E8169817A8180E8A0
:1022600093E00E94BB0182E891E00E94460C88E066
:102270000E942A0C83E40E94160C8DE40E94EC0B51
:1022800081E00E94A90B88E692E00E94E00B809119
:102290008F03811109C000918D0310E000321105F8
:1022A0002CF000E210E002C00FEF10E050E4C52E69
:1022B000D12C412C512C212C312C76010C151D05D3
:1022C0000CF4780128E04E2D6AE282E10E94640B52
:1022D0004201612C712C6E147F042CF5A12CB12CC1
:1022E00080E893E00E94DB0980918403909185034C
:1022F000F401EA0DFB1DE859FF4F6491DC01ED91FB
:10230000FC910190F081E02D0995BFEFAB1ABB0A5B
:10231000E8E0AE16B10421F7F8E08F0E911C8FEFC4
:10232000681A780AD8CFC701F7FE02C080E090E0B3
:1023300043E0880F991F4A95E1F7480E591E2091F6
:102340009403309195034091960350919703D701E0
:102350000E94A515AB01BC0180E893E00E94FC0936
:10236000200E311EC01AD10A90E4291631040CF453
:10237000A4CF8AE08093870383E00E94A90B20E02A
:1023800041E068E38BE10E94640BCE0149960E9414
:102390009004CE0143960E949004CE0101960E94C3
:1023A00090041092330280913202882339F1109206
:1023B0003502E0E2F2E081E392E020E221938E1721
:1023C0009F07E1F78EE592E00E948F0C88E592E08E
:1023D0000E948F0C82E592E00E948F0C8CE492E0C8
:1023E0000E948F0C86E492E00E948F0C68E873E1F3
:1023F00080E090E00E94D30D109232028091310271
:10240000882359F166E472E0CE0101960E9495049A
:1024100089819A81009719F00E94181503C060E025
:1024200070E0CB018B01101611066CF461E08EE0B8
:102430000E94360D60ED77E080E090E00E94D30DC1
:1024400001501109F0CF60E08EE00E94360DCE0100
:1024500001960E9490041092310281E08093D00294
:102460008FB7F8944091360250913702609138024C
:10247000709139028FBF8091C0029091C102A091EA
:10248000C202B091C302481B590B6A0B7B0B8091AF
:10249000CC029091CD02A0E0B0E084179507A6078A
:1024A000B70708F002C110E08091CA02181710F0B7
:1024B000912C42C0E091C602F091C702E10FF11DDC
:1024C00062E080810E94970D1F5FEECF082D10E023
:1024D000E091C602F091C702E00FF11F80810E94D7
:1024E0000D0D0C5F1F4F000F111FF801EC59FD4F30
:1024F000892B09F04DC0808191818A299B29918384
:10250000808383948091CA02881600F3E091C80208
:10251000F091C902EE0DFF1D61E080810E94360D31
:102520008091C8029091C902FC01EE0DFF1D60E090
:1025300080810E94970D93948091CB02981668F544
:10254000E92CF12CE091C802F091C902EE0DFF1DBB
:1025500061E080810E94970DE091C802F091C9026C
:10256000EE0DFF1D60E080810E94360D81E090E05D
:10257000A0E0B0E0092C04C0880F991FAA1FBB1F60
:102580000A94D2F75C016C01C094D094812CBACF2C
:10259000808191818C219D21B2CF24E6E22E22E020
:1025A000F22EF701878D90A1892B31F4148EAFEFB5
:1025B000BFEFB68FA58F11A23696B2E0E03AFB07C7
:1025C00089F7D12C96E0B92E8091CA02D81658F519
:1025D000C12C0D2D10E0000F111F04591D4F20912B
:1025E000CB02C216F0F4F801408151810C2C02C0DC
:1025F000569547950A94E2F7642F6170D29E900138
:1026000011242C0D311DE4E6F2E080E0A58DB68D9D
:102610002A173B0709F42EC18F5F36968A30B1F72F
:102620000DC1D394D1CF80E0D70191969C919111A7
:1026300081E0B6E0EB0EF11CE0EAEE16E2E0FE0609
:1026400099F79FB7F8944091360250913702609104
:102650003802709139029FBF4093C0025093C1026B
:102660006093C2027093C3028823F9F080918502BF
:102670008823D9F080918302909184020197A9F474
:1026800080918002882399F08093300261E088E095
:102690000E94360D61E070E080E090E00E94D30D72
:1026A00060E088E00E94360D02C01092D002809156
:1026B00035028111B8C083ED92E00E94EB078823B8
:1026C00009F4B1C083ED92E00E947703882309F4F6
:1026D000AAC08FEF8B8B8C8B8D8B8E8B8F8B888F83
:1026E00082E18F8F80E6898381E08A83CE014396E1
:1026F000AE014D5F5F4FDE011996942E152FFC0140
:102700002191CF01FA012193AF01AE17BF07B9F7AD
:10271000E091D502F0E0EE52FD4F81918D9388A1BA
:1027200099A18A179B07C9F71F92812CA12CB12C64
:10273000C12CD12CE12CF12C0CE09E012F5F3F4FDE
:1027400040E16EE083ED92E00E94C7060F90811198
:102750006AC08F8D823108F466C080E3898301E00E
:102760000A83292D312F42E0BE016F5F7F4F83ED39
:1027700092E00E947B06811156C00F93DE015F96A6
:102780006D01FE0131967F0104E09F0140E36CE0A2
:1027900083ED92E00E94C7060F90811144C0F701BB
:1027A000A0E2B2E081918D938AA19BA1E817F9077D
:1027B000C9F780E5898F1A8E9E01255E3F4F42E062
:1027C000BE01675E7F4F83ED92E00E947B06811120
:1027D00013C01F92812CA12CB12CC12CD12CE12C27
:1027E000F12C04E09E01275E3F4F40E36CE083ED57
:1027F00092E00E94C7060F9048E060E183ED92E00E
:102800000E94D70781E08093350261E088E00E9452
:10281000360D61E070E080E090E00E94D30D60E052
:1028200088E00E94360D0E94BD027DCC4FE062E040
:1028300083ED92E00E945E0613E0D8CB40FF1CC0FF
:10284000E4E6F2E080E090E0448D411117C0E091B1
:10285000C402F091C502E20FF31F4081B89EF0015F
:10286000B99EF00D1124EC59FD4F448F368F258F02
:1028700010A2178E0E949C0CC394B1CE019636967E
:102880008A30910509F7F8CF1092E6021092E5021E
:1028900088EE93E0A0E0B0E08093E7029093E80236
:1028A000A093E902B093EA0222E231E03093E4021D
:1028B0002093E30225EC30E03093F0022093EF0206
:1028C00024EC30E03093F2022093F10220EC30E06F
:1028D0003093F4022093F30221EC30E03093F602BF
:1028E0002093F50222EC30E03093F8022093F702B7
:1028F00026EC30E03093FA022093F9021092FC02A9
:102900001092FD021092FE021092FF0210923D0200
:1029100010923C0280933E0290933F02A0934002AB
:10292000B093410284E391E090933B0280933A029A
:1029300010928303109282038AE591E090938103C1
:102940008093800383EE92E09093850380938403C9
:102950008FEF80938E0310928F0380E591E0909328
:10296000D4028093D3028AE08093E10289E08093CD
:10297000E2021092660210926A02109269021092AC
:102980006B0286E491E09093650280936402E4E632
:10299000F2E080EA92E0148E10A2178E11A2369611
:1029A0008E179F07C1F784E091E09093C702809350
:1029B000C60280E091E09093C9028093C80284E04F
:1029C0008093CA028093CB0288E091E09093C50285
:1029D0008093C4028AE090E09093CD028093CC0271
:1029E00084EF91E09093CF028093CE021092D202B6
:1029F0001092D1021092C0021092C1021092C20233
:102A00001092C3021092D0028EE592E00E94F70A63
:102A100088E592E00E94F70A82E592E00E94F70AB8
:102A20008CE492E00E94F70A86E492E00C94F70AA4
:102A30001F93FC0199278827BC01E894119110325B
:102A4000E9F3193010F01E30C8F31B3251F01D327B
:102A500049F4689406C00E943F15610F711D811DE5
:102A6000911D119110531A30B0F33EF4909580955A
:102A7000709561957F4F8F4F9F4F1F910895592FEC
:102A8000482F372F262F660F771F881F991F660F35
:102A9000771F881F991F620F731F841F951F660F72
:102AA000771F881F991F08950E949615A59F900D66
:102AB000B49F900DA49F800D911D112408952F9215
:102AC0003F924F925F926F927F928F929F92AF92BE
:102AD000BF92CF92DF92EF92FF920F931F93CF930B
:102AE000DF93CDB7DEB7CA1BDB0B0FB6F894DEBFA2
:102AF0000FBECDBF09942A88398848885F846E84C8
:102B00007D848C849B84AA84B984C884DF80EE8011
:102B1000FD800C811B81AA81B981CE0FD11D0FB61A
:102B2000F894DEBF0FBECDBFED010895A29FB001A6
:102B3000B39FC001A39F700D811D1124911DB29FF1
:102B4000700D811D1124911D0895B7FF0C9454152B
:102B50000E945415821B930B0895EE0FFF1F0590E2
:102B6000F491E02D09940F931F93CF93DF9382305C
:102B7000910510F482E090E0E091A303F091A403AA
:102B800020E030E0A0E0B0E0309719F140815181C1
:102B90000281138148175907C8F08417950769F413
:102BA000109731F012960C93129713961C9327C02E
:102BB0000093A3031093A40322C02115310519F03B
:102BC0004217530718F49A01BD01EF01DF01F80124
:102BD000DBCF21153105F9F0281B390B24303105E5
:102BE00080F48A819B816115710521F0FB0193833B
:102BF000828304C09093A4038093A303FE013296C2
:102C000044C0FE01E20FF31F8193919322503109DA
:102C1000398328833AC02091A1033091A203232B4A
:102C200041F420911A0130911B013093A2032093AB
:102C3000A10320911801309119012115310541F4AA
:102C40002DB73EB740911C0150911D01241B350B3F
:102C5000E091A103F091A203E217F307A0F42E1B69
:102C60003F0B2817390778F0AC014E5F5F4F2417F0
:102C7000350748F04E0F5F1F5093A2034093A10306
:102C80008193919302C0E0E0F0E0CF01DF91CF911A
:102C90001F910F910895CF93DF93009709F481C09E
:102CA000FC01329713821282A091A303B091A40376
:102CB000109781F420813181820F931F2091A1030D
:102CC0003091A2032817390751F5F093A203E0933E
:102CD000A10367C0ED0120E030E0CE17DF0740F42C
:102CE0004A815B819E0141155105F1F0EA01F5CF62
:102CF000D383C28340815181840F951FC817D907A0
:102D000059F488819981840F951F0296918380835D
:102D10008A819B81938382832115310529F4F09365
:102D2000A403E093A3033DC0E901FB83EA83499137
:102D30005991C40FD51FEC17FD0761F48081918173
:102D4000840F951F0296E90199838883828193817C
:102D50009B838A83E0E0F0E012968D919C9113971B
:102D6000009719F0FD01DC01F7CF8D919C9111972F
:102D70009D012E5F3F4F820F931F2091A103309141
:102D8000A2032817390769F4309729F41092A40395
:102D90001092A30302C013821282B093A203A093E5
:102DA000A103DF91CF910895A0E0B0E0EAEDF6E154
:102DB0000C946315EC01009721F4CB010E94B3152C
:102DC000B4C0FC01E60FF71F9C0122503109E21745
:102DD000F30708F4A8C0D9010D911C9111970617AB
:102DE0001707B0F00530110508F49BC0C80104971F
:102DF0008617970708F495C002501109061B170B98
:102E0000019311936D937C93CF010E944B1689C05F
:102E10005B01A01AB10A4C01800E911EA091A30380
:102E2000B091A403612C712CE12CF12C109709F4C2
:102E300046C08D919C911197A815B905B1F56C010B
:102E400042E0C40ED11CCA14DB0478F14C018A188C
:102E50009B08640142E0C40ED11C1296BC901297EC
:102E60001396AC91B5E0CB16D10440F0B282A383A7
:102E700091828082D9016D937C9309C00E5F1F4FB0
:102E8000800F911FF90191838083EB2DFA2FE114BC
:102E9000F10431F0D7011396FC93EE93129741C0E1
:102EA000F093A403E093A3033CC06816790608F4EA
:102EB0003C017D0112960D90BC91A02DB7CF809161
:102EC000A1039091A20388169906E1F4661677068D
:102ED000C8F48091180190911901009741F48DB7C1
:102EE0009EB740911C0150911D01841B950BE81762
:102EF000F907C8F4F093A203E093A103F9017183E9
:102F000060830FC0CB010E94B3157C01009759F07C
:102F1000A801BE010E94A717CE010E944B16C7014F
:102F200004C0CE0102C080E090E0CDB7DEB7EEE095
:102F30000C947F1581E090E0F8940C94B7179111F0
:102F4000089581568A5108F4805285580895FB01EE
:102F5000DC0102C001900D9241505040D8F7089515
:102F6000FB01DC0101900D920020E1F7089511E0D2
:102F7000C0E9D1E004C0FE010E94AD152196C1391F
:082F8000D107C9F7F894FFCF57
:102F88000302101107060405313233413435364245
:102F9800373839432A3023440000A50320000000B5
:102FA80000004E02BB01E5019B021602F401080273
:102FB8000000000066035B0388032F0353033F03ED
:102FC800300300000000610446045E0400000000B5
:102FD8005308EB077703000000001C0ABB018803B5
:102FE800A00A000000008B03BB018803870354720A
:102FF800616E73616374696F6E2072656365697071
:0A30080074002E3030000D0A0000A5
:00000001FF
